{
  "contractName": "KYC",
  "abi": [
    {
      "inputs": [],
      "stateMutability": "nonpayable",
      "type": "constructor"
    },
    {
      "inputs": [
        {
          "internalType": "bytes32",
          "name": "_userName",
          "type": "bytes32"
        },
        {
          "internalType": "bytes32",
          "name": "_customerData",
          "type": "bytes32"
        }
      ],
      "name": "addCustomer",
      "outputs": [],
      "stateMutability": "nonpayable",
      "type": "function"
    },
    {
      "inputs": [
        {
          "internalType": "bytes32",
          "name": "_userName",
          "type": "bytes32"
        }
      ],
      "name": "viewCustomer",
      "outputs": [
        {
          "internalType": "bytes32",
          "name": "",
          "type": "bytes32"
        },
        {
          "internalType": "bytes32",
          "name": "",
          "type": "bytes32"
        },
        {
          "internalType": "address",
          "name": "",
          "type": "address"
        },
        {
          "internalType": "bool",
          "name": "",
          "type": "bool"
        },
        {
          "internalType": "uint256",
          "name": "",
          "type": "uint256"
        },
        {
          "internalType": "uint256",
          "name": "",
          "type": "uint256"
        }
      ],
      "stateMutability": "view",
      "type": "function",
      "constant": true
    },
    {
      "inputs": [
        {
          "internalType": "bytes32",
          "name": "_userName",
          "type": "bytes32"
        },
        {
          "internalType": "bytes32",
          "name": "_newcustomerData",
          "type": "bytes32"
        }
      ],
      "name": "modifyCustomer",
      "outputs": [],
      "stateMutability": "nonpayable",
      "type": "function"
    },
    {
      "inputs": [
        {
          "internalType": "bytes32",
          "name": "_userName",
          "type": "bytes32"
        }
      ],
      "name": "upvoteCustomerKyc",
      "outputs": [],
      "stateMutability": "nonpayable",
      "type": "function"
    },
    {
      "inputs": [
        {
          "internalType": "bytes32",
          "name": "_userName",
          "type": "bytes32"
        }
      ],
      "name": "downvoteCustomerKyc",
      "outputs": [],
      "stateMutability": "nonpayable",
      "type": "function"
    },
    {
      "inputs": [
        {
          "internalType": "bytes32",
          "name": "_userName",
          "type": "bytes32"
        },
        {
          "internalType": "bytes32",
          "name": "_customerData",
          "type": "bytes32"
        }
      ],
      "name": "addKycRequest",
      "outputs": [],
      "stateMutability": "nonpayable",
      "type": "function"
    },
    {
      "inputs": [
        {
          "internalType": "bytes32",
          "name": "_userName",
          "type": "bytes32"
        }
      ],
      "name": "removeKycRequest",
      "outputs": [],
      "stateMutability": "nonpayable",
      "type": "function"
    },
    {
      "inputs": [
        {
          "internalType": "address",
          "name": "_bankAddr",
          "type": "address"
        }
      ],
      "name": "viewBankDetails",
      "outputs": [
        {
          "components": [
            {
              "internalType": "uint16",
              "name": "complaintsReported",
              "type": "uint16"
            },
            {
              "internalType": "uint16",
              "name": "kycReqCount",
              "type": "uint16"
            },
            {
              "internalType": "bool",
              "name": "isAllowedToVote",
              "type": "bool"
            },
            {
              "internalType": "address",
              "name": "ethAddress",
              "type": "address"
            },
            {
              "internalType": "bytes32",
              "name": "name",
              "type": "bytes32"
            },
            {
              "internalType": "bytes32",
              "name": "regNumber",
              "type": "bytes32"
            }
          ],
          "internalType": "struct KYC.Bank",
          "name": "",
          "type": "tuple"
        }
      ],
      "stateMutability": "view",
      "type": "function",
      "constant": true
    },
    {
      "inputs": [
        {
          "internalType": "address",
          "name": "_bankAddr",
          "type": "address"
        }
      ],
      "name": "getBankComplaintsCount",
      "outputs": [
        {
          "internalType": "uint256",
          "name": "",
          "type": "uint256"
        }
      ],
      "stateMutability": "view",
      "type": "function",
      "constant": true
    },
    {
      "inputs": [
        {
          "internalType": "address",
          "name": "_bankAddr",
          "type": "address"
        }
      ],
      "name": "reportBank",
      "outputs": [],
      "stateMutability": "nonpayable",
      "type": "function"
    },
    {
      "inputs": [
        {
          "internalType": "bytes32",
          "name": "_bankName",
          "type": "bytes32"
        },
        {
          "internalType": "bytes32",
          "name": "_bankRegNo",
          "type": "bytes32"
        },
        {
          "internalType": "address",
          "name": "_bankAddr",
          "type": "address"
        }
      ],
      "name": "addBank",
      "outputs": [],
      "stateMutability": "nonpayable",
      "type": "function"
    },
    {
      "inputs": [
        {
          "internalType": "address",
          "name": "_bankAddr",
          "type": "address"
        },
        {
          "internalType": "bool",
          "name": "_isAllowedToVote",
          "type": "bool"
        }
      ],
      "name": "modifyBankVotingRights",
      "outputs": [],
      "stateMutability": "nonpayable",
      "type": "function"
    },
    {
      "inputs": [
        {
          "internalType": "address",
          "name": "_bankAddr",
          "type": "address"
        }
      ],
      "name": "removeBank",
      "outputs": [],
      "stateMutability": "nonpayable",
      "type": "function"
    }
  ],
  "bytecode": "0x608060405234801561001057600080fd5b50336000806101000a81548173ffffffffffffffffffffffffffffffffffffffff021916908373ffffffffffffffffffffffffffffffffffffffff1602179055506139d6806100606000396000f3fe608060405234801561001057600080fd5b50600436106100cf5760003560e01c80639649650c1161008c578063a5a4980011610066578063a5a49800146101f8578063b8af51da14610214578063c9091acc14610230578063fe810d2e1461024c576100cf565b80639649650c146101a45780639c48a20b146101c0578063a5a3d5c8146101dc576100cf565b806314e7fbcb146100d45780631656affc146101045780633b734b42146101205780635cc4a4771461013c5780637fde4bc01461015857806388cc8d8d14610174575b600080fd5b6100ee60048036038101906100e99190612ded565b610281565b6040516100fb91906133ad565b60405180910390f35b61011e60048036038101906101199190612e5a565b6103b0565b005b61013a60048036038101906101359190612e5a565b610819565b005b61015660048036038101906101519190612e87565b610d13565b005b610172600480360381019061016d9190612ec7565b6110ca565b005b61018e60048036038101906101899190612ded565b6114cf565b60405161019b9190613392565b60405180910390f35b6101be60048036038101906101b99190612ded565b61174e565b005b6101da60048036038101906101d59190612e1a565b611980565b005b6101f660048036038101906101f19190612e5a565b611b4e565b005b610212600480360381019061020d9190612ded565b611da5565b005b61022e60048036038101906102299190612e87565b6121a0565b005b61024a60048036038101906102459190612e87565b6124ed565b005b61026660048036038101906102619190612e5a565b612815565b604051610278969594939291906131b1565b60405180910390f35b60008073ffffffffffffffffffffffffffffffffffffffff16600460008473ffffffffffffffffffffffffffffffffffffffff1673ffffffffffffffffffffffffffffffffffffffff16815260200190815260200160002060000160059054906101000a900473ffffffffffffffffffffffffffffffffffffffff1673ffffffffffffffffffffffffffffffffffffffff161415610354576040517f08c379a000000000000000000000000000000000000000000000000000000000815260040161034b90613252565b60405180910390fd5b600460008373ffffffffffffffffffffffffffffffffffffffff1673ffffffffffffffffffffffffffffffffffffffff16815260200190815260200160002060000160009054906101000a900461ffff1661ffff169050919050565b80600073ffffffffffffffffffffffffffffffffffffffff166003600083815260200190815260200160002060000160059054906101000a900473ffffffffffffffffffffffffffffffffffffffff1673ffffffffffffffffffffffffffffffffffffffff161415610457576040517f08c379a000000000000000000000000000000000000000000000000000000000815260040161044e90613312565b60405180910390fd5b600073ffffffffffffffffffffffffffffffffffffffff16600460003373ffffffffffffffffffffffffffffffffffffffff1673ffffffffffffffffffffffffffffffffffffffff16815260200190815260200160002060000160059054906101000a900473ffffffffffffffffffffffffffffffffffffffff1673ffffffffffffffffffffffffffffffffffffffff161415610529576040517f08c379a000000000000000000000000000000000000000000000000000000000815260040161052090613252565b60405180910390fd5b600460003373ffffffffffffffffffffffffffffffffffffffff1673ffffffffffffffffffffffffffffffffffffffff16815260200190815260200160002060000160049054906101000a900460ff166105b8576040517f08c379a00000000000000000000000000000000000000000000000000000000081526004016105af90613352565b60405180910390fd5b6006600083815260200190815260200160002060003373ffffffffffffffffffffffffffffffffffffffff1673ffffffffffffffffffffffffffffffffffffffff16815260200190815260200160002060009054906101000a900460ff1615610656576040517f08c379a000000000000000000000000000000000000000000000000000000000815260040161064d90613372565b60405180910390fd5b600073ffffffffffffffffffffffffffffffffffffffff166005600084815260200190815260200160002060020160009054906101000a900473ffffffffffffffffffffffffffffffffffffffff1673ffffffffffffffffffffffffffffffffffffffff1614156106fc576040517f08c379a00000000000000000000000000000000000000000000000000000000081526004016106f390613332565b60405180910390fd5b60016003600084815260200190815260200160002060000160008282829054906101000a900461ffff1661073091906133d9565b92506101000a81548161ffff021916908361ffff16021790555060036001546107599190613411565b6003600084815260200190815260200160002060000160029054906101000a900461ffff1661ffff161080156107de57506003600083815260200190815260200160002060000160029054906101000a900461ffff1661ffff166003600084815260200190815260200160002060000160009054906101000a900461ffff1661ffff16115b6003600084815260200190815260200160002060000160046101000a81548160ff0219169083151502179055506108153383612b1d565b5050565b80600073ffffffffffffffffffffffffffffffffffffffff166003600083815260200190815260200160002060000160059054906101000a900473ffffffffffffffffffffffffffffffffffffffff1673ffffffffffffffffffffffffffffffffffffffff1614156108c0576040517f08c379a00000000000000000000000000000000000000000000000000000000081526004016108b790613312565b60405180910390fd5b600073ffffffffffffffffffffffffffffffffffffffff16600460003373ffffffffffffffffffffffffffffffffffffffff1673ffffffffffffffffffffffffffffffffffffffff16815260200190815260200160002060000160059054906101000a900473ffffffffffffffffffffffffffffffffffffffff1673ffffffffffffffffffffffffffffffffffffffff161415610992576040517f08c379a000000000000000000000000000000000000000000000000000000000815260040161098990613252565b60405180910390fd5b600460003373ffffffffffffffffffffffffffffffffffffffff1673ffffffffffffffffffffffffffffffffffffffff16815260200190815260200160002060000160049054906101000a900460ff16610a21576040517f08c379a0000000000000000000000000000000000000000000000000000000008152600401610a1890613352565b60405180910390fd5b6006600083815260200190815260200160002060003373ffffffffffffffffffffffffffffffffffffffff1673ffffffffffffffffffffffffffffffffffffffff16815260200190815260200160002060009054906101000a900460ff1615610abf576040517f08c379a0000000000000000000000000000000000000000000000000000000008152600401610ab690613372565b60405180910390fd5b600073ffffffffffffffffffffffffffffffffffffffff166005600084815260200190815260200160002060020160009054906101000a900473ffffffffffffffffffffffffffffffffffffffff1673ffffffffffffffffffffffffffffffffffffffff161415610b65576040517f08c379a0000000000000000000000000000000000000000000000000000000008152600401610b5c90613332565b60405180910390fd5b60016003600084815260200190815260200160002060000160028282829054906101000a900461ffff16610b9991906133d9565b92506101000a81548161ffff021916908361ffff1602179055506003600154610bc29190613411565b6003600084815260200190815260200160002060000160029054906101000a900461ffff1661ffff16108015610c4757506003600083815260200190815260200160002060000160029054906101000a900461ffff1661ffff166003600084815260200190815260200160002060000160009054906101000a900461ffff1661ffff16115b6003600084815260200190815260200160002060000160046101000a81548160ff0219169083151502179055506000600460006003600086815260200190815260200160002060000160059054906101000a900473ffffffffffffffffffffffffffffffffffffffff1673ffffffffffffffffffffffffffffffffffffffff1673ffffffffffffffffffffffffffffffffffffffff16815260200190815260200160002060000160046101000a81548160ff021916908315150217905550610d0f3383612b1d565b5050565b81600073ffffffffffffffffffffffffffffffffffffffff166003600083815260200190815260200160002060000160059054906101000a900473ffffffffffffffffffffffffffffffffffffffff1673ffffffffffffffffffffffffffffffffffffffff161415610dba576040517f08c379a0000000000000000000000000000000000000000000000000000000008152600401610db190613312565b60405180910390fd5b600073ffffffffffffffffffffffffffffffffffffffff16600460003373ffffffffffffffffffffffffffffffffffffffff1673ffffffffffffffffffffffffffffffffffffffff16815260200190815260200160002060000160059054906101000a900473ffffffffffffffffffffffffffffffffffffffff1673ffffffffffffffffffffffffffffffffffffffff161415610e8c576040517f08c379a0000000000000000000000000000000000000000000000000000000008152600401610e8390613252565b60405180910390fd5b600460003373ffffffffffffffffffffffffffffffffffffffff1673ffffffffffffffffffffffffffffffffffffffff16815260200190815260200160002060000160049054906101000a900460ff16610f1b576040517f08c379a0000000000000000000000000000000000000000000000000000000008152600401610f12906132f2565b60405180910390fd5b600073ffffffffffffffffffffffffffffffffffffffff166005600085815260200190815260200160002060020160009054906101000a900473ffffffffffffffffffffffffffffffffffffffff1673ffffffffffffffffffffffffffffffffffffffff1614610fc0576040517f08c379a0000000000000000000000000000000000000000000000000000000008152600401610fb790613212565b60405180910390fd5b826005600085815260200190815260200160002060000181905550816005600085815260200190815260200160002060010181905550336005600085815260200190815260200160002060020160006101000a81548173ffffffffffffffffffffffffffffffffffffffff021916908373ffffffffffffffffffffffffffffffffffffffff1602179055506001600460003373ffffffffffffffffffffffffffffffffffffffff1673ffffffffffffffffffffffffffffffffffffffff16815260200190815260200160002060000160028282829054906101000a900461ffff166110ab91906133d9565b92506101000a81548161ffff021916908361ffff160217905550505050565b60008054906101000a900473ffffffffffffffffffffffffffffffffffffffff1673ffffffffffffffffffffffffffffffffffffffff163373ffffffffffffffffffffffffffffffffffffffff1614611158576040517f08c379a000000000000000000000000000000000000000000000000000000000815260040161114f90613232565b60405180910390fd5b600073ffffffffffffffffffffffffffffffffffffffff16600460008373ffffffffffffffffffffffffffffffffffffffff1673ffffffffffffffffffffffffffffffffffffffff16815260200190815260200160002060000160059054906101000a900473ffffffffffffffffffffffffffffffffffffffff1673ffffffffffffffffffffffffffffffffffffffff1614611229576040517f08c379a000000000000000000000000000000000000000000000000000000000815260040161122090613272565b60405180910390fd5b82600460008373ffffffffffffffffffffffffffffffffffffffff1673ffffffffffffffffffffffffffffffffffffffff1681526020019081526020016000206001018190555081600460008373ffffffffffffffffffffffffffffffffffffffff1673ffffffffffffffffffffffffffffffffffffffff1681526020019081526020016000206002018190555080600460008373ffffffffffffffffffffffffffffffffffffffff1673ffffffffffffffffffffffffffffffffffffffff16815260200190815260200160002060000160056101000a81548173ffffffffffffffffffffffffffffffffffffffff021916908373ffffffffffffffffffffffffffffffffffffffff1602179055506001600460008373ffffffffffffffffffffffffffffffffffffffff1673ffffffffffffffffffffffffffffffffffffffff16815260200190815260200160002060000160046101000a81548160ff0219169083151502179055506000600460008373ffffffffffffffffffffffffffffffffffffffff1673ffffffffffffffffffffffffffffffffffffffff16815260200190815260200160002060000160006101000a81548161ffff021916908361ffff1602179055506000600460008373ffffffffffffffffffffffffffffffffffffffff1673ffffffffffffffffffffffffffffffffffffffff16815260200190815260200160002060000160026101000a81548161ffff021916908361ffff16021790555060016000815480929190611462906134cc565b91905055506002819080600181540180825580915050600190039060005260206000200160009091909190916101000a81548173ffffffffffffffffffffffffffffffffffffffff021916908373ffffffffffffffffffffffffffffffffffffffff160217905550505050565b6114d7612d52565b600073ffffffffffffffffffffffffffffffffffffffff16600460008473ffffffffffffffffffffffffffffffffffffffff1673ffffffffffffffffffffffffffffffffffffffff16815260200190815260200160002060000160059054906101000a900473ffffffffffffffffffffffffffffffffffffffff1673ffffffffffffffffffffffffffffffffffffffff1614156115a9576040517f08c379a00000000000000000000000000000000000000000000000000000000081526004016115a090613252565b60405180910390fd5b600460003373ffffffffffffffffffffffffffffffffffffffff1673ffffffffffffffffffffffffffffffffffffffff16815260200190815260200160002060000160049054906101000a900460ff16611638576040517f08c379a000000000000000000000000000000000000000000000000000000000815260040161162f906132f2565b60405180910390fd5b600460008373ffffffffffffffffffffffffffffffffffffffff1673ffffffffffffffffffffffffffffffffffffffff1681526020019081526020016000206040518060c00160405290816000820160009054906101000a900461ffff1661ffff1661ffff1681526020016000820160029054906101000a900461ffff1661ffff1661ffff1681526020016000820160049054906101000a900460ff161515151581526020016000820160059054906101000a900473ffffffffffffffffffffffffffffffffffffffff1673ffffffffffffffffffffffffffffffffffffffff1673ffffffffffffffffffffffffffffffffffffffff168152602001600182015481526020016002820154815250509050919050565b60008054906101000a900473ffffffffffffffffffffffffffffffffffffffff1673ffffffffffffffffffffffffffffffffffffffff163373ffffffffffffffffffffffffffffffffffffffff16146117dc576040517f08c379a00000000000000000000000000000000000000000000000000000000081526004016117d390613232565b60405180910390fd5b600073ffffffffffffffffffffffffffffffffffffffff16600460008373ffffffffffffffffffffffffffffffffffffffff1673ffffffffffffffffffffffffffffffffffffffff16815260200190815260200160002060000160059054906101000a900473ffffffffffffffffffffffffffffffffffffffff1673ffffffffffffffffffffffffffffffffffffffff1614156118ae576040517f08c379a00000000000000000000000000000000000000000000000000000000081526004016118a590613252565b60405180910390fd5b600460008273ffffffffffffffffffffffffffffffffffffffff1673ffffffffffffffffffffffffffffffffffffffff168152602001908152602001600020600080820160006101000a81549061ffff02191690556000820160026101000a81549061ffff02191690556000820160046101000a81549060ff02191690556000820160056101000a81549073ffffffffffffffffffffffffffffffffffffffff021916905560018201600090556002820160009055505060016000815480929190611978906134a2565b919050555050565b60008054906101000a900473ffffffffffffffffffffffffffffffffffffffff1673ffffffffffffffffffffffffffffffffffffffff163373ffffffffffffffffffffffffffffffffffffffff1614611a0e576040517f08c379a0000000000000000000000000000000000000000000000000000000008152600401611a0590613232565b60405180910390fd5b600073ffffffffffffffffffffffffffffffffffffffff16600460008473ffffffffffffffffffffffffffffffffffffffff1673ffffffffffffffffffffffffffffffffffffffff16815260200190815260200160002060000160059054906101000a900473ffffffffffffffffffffffffffffffffffffffff1673ffffffffffffffffffffffffffffffffffffffff161415611ae0576040517f08c379a0000000000000000000000000000000000000000000000000000000008152600401611ad790613252565b60405180910390fd5b80600460008473ffffffffffffffffffffffffffffffffffffffff1673ffffffffffffffffffffffffffffffffffffffff16815260200190815260200160002060000160046101000a81548160ff0219169083151502179055508015611b4a57611b4982612b8a565b5b5050565b600073ffffffffffffffffffffffffffffffffffffffff16600460003373ffffffffffffffffffffffffffffffffffffffff1673ffffffffffffffffffffffffffffffffffffffff16815260200190815260200160002060000160059054906101000a900473ffffffffffffffffffffffffffffffffffffffff1673ffffffffffffffffffffffffffffffffffffffff161415611c20576040517f08c379a0000000000000000000000000000000000000000000000000000000008152600401611c1790613252565b60405180910390fd5b600460003373ffffffffffffffffffffffffffffffffffffffff1673ffffffffffffffffffffffffffffffffffffffff16815260200190815260200160002060000160049054906101000a900460ff16611caf576040517f08c379a0000000000000000000000000000000000000000000000000000000008152600401611ca6906132f2565b60405180910390fd5b600073ffffffffffffffffffffffffffffffffffffffff166005600083815260200190815260200160002060020160009054906101000a900473ffffffffffffffffffffffffffffffffffffffff1673ffffffffffffffffffffffffffffffffffffffff161415611d55576040517f08c379a0000000000000000000000000000000000000000000000000000000008152600401611d4c906132b2565b60405180910390fd5b6005600082815260200190815260200160002060008082016000905560018201600090556002820160006101000a81549073ffffffffffffffffffffffffffffffffffffffff0219169055505050565b600073ffffffffffffffffffffffffffffffffffffffff16600460008373ffffffffffffffffffffffffffffffffffffffff1673ffffffffffffffffffffffffffffffffffffffff16815260200190815260200160002060000160059054906101000a900473ffffffffffffffffffffffffffffffffffffffff1673ffffffffffffffffffffffffffffffffffffffff161415611e77576040517f08c379a0000000000000000000000000000000000000000000000000000000008152600401611e6e90613252565b60405180910390fd5b600460003373ffffffffffffffffffffffffffffffffffffffff1673ffffffffffffffffffffffffffffffffffffffff16815260200190815260200160002060000160049054906101000a900460ff16611f06576040517f08c379a0000000000000000000000000000000000000000000000000000000008152600401611efd906132f2565b60405180910390fd5b600760008273ffffffffffffffffffffffffffffffffffffffff1673ffffffffffffffffffffffffffffffffffffffff16815260200190815260200160002060003373ffffffffffffffffffffffffffffffffffffffff1673ffffffffffffffffffffffffffffffffffffffff16815260200190815260200160002060009054906101000a900460ff1615611fd0576040517f08c379a0000000000000000000000000000000000000000000000000000000008152600401611fc790613292565b60405180910390fd5b6001600460008373ffffffffffffffffffffffffffffffffffffffff1673ffffffffffffffffffffffffffffffffffffffff16815260200190815260200160002060000160008282829054906101000a900461ffff1661203091906133d9565b92506101000a81548161ffff021916908361ffff16021790555060036001546120599190613411565b600460008373ffffffffffffffffffffffffffffffffffffffff1673ffffffffffffffffffffffffffffffffffffffff16815260200190815260200160002060000160009054906101000a900461ffff1661ffff1610600460008373ffffffffffffffffffffffffffffffffffffffff1673ffffffffffffffffffffffffffffffffffffffff16815260200190815260200160002060000160046101000a81548160ff0219169083151502179055506001600760008373ffffffffffffffffffffffffffffffffffffffff1673ffffffffffffffffffffffffffffffffffffffff16815260200190815260200160002060003373ffffffffffffffffffffffffffffffffffffffff1673ffffffffffffffffffffffffffffffffffffffff16815260200190815260200160002060006101000a81548160ff02191690831515021790555050565b81600073ffffffffffffffffffffffffffffffffffffffff166003600083815260200190815260200160002060000160059054906101000a900473ffffffffffffffffffffffffffffffffffffffff1673ffffffffffffffffffffffffffffffffffffffff161415612247576040517f08c379a000000000000000000000000000000000000000000000000000000000815260040161223e90613312565b60405180910390fd5b600073ffffffffffffffffffffffffffffffffffffffff16600460003373ffffffffffffffffffffffffffffffffffffffff1673ffffffffffffffffffffffffffffffffffffffff16815260200190815260200160002060000160059054906101000a900473ffffffffffffffffffffffffffffffffffffffff1673ffffffffffffffffffffffffffffffffffffffff161415612319576040517f08c379a000000000000000000000000000000000000000000000000000000000815260040161231090613252565b60405180910390fd5b600460003373ffffffffffffffffffffffffffffffffffffffff1673ffffffffffffffffffffffffffffffffffffffff16815260200190815260200160002060000160049054906101000a900460ff166123a8576040517f08c379a000000000000000000000000000000000000000000000000000000000815260040161239f906132f2565b60405180910390fd5b81600360008581526020019081526020016000206002018190555060006003600085815260200190815260200160002060000160006101000a81548161ffff021916908361ffff16021790555060006003600085815260200190815260200160002060000160026101000a81548161ffff021916908361ffff160217905550600073ffffffffffffffffffffffffffffffffffffffff166005600085815260200190815260200160002060020160009054906101000a900473ffffffffffffffffffffffffffffffffffffffff1673ffffffffffffffffffffffffffffffffffffffff16146124df576005600084815260200190815260200160002060008082016000905560018201600090556002820160006101000a81549073ffffffffffffffffffffffffffffffffffffffff021916905550505b6124e883612c84565b505050565b600073ffffffffffffffffffffffffffffffffffffffff16600460003373ffffffffffffffffffffffffffffffffffffffff1673ffffffffffffffffffffffffffffffffffffffff16815260200190815260200160002060000160059054906101000a900473ffffffffffffffffffffffffffffffffffffffff1673ffffffffffffffffffffffffffffffffffffffff1614156125bf576040517f08c379a00000000000000000000000000000000000000000000000000000000081526004016125b690613252565b60405180910390fd5b600460003373ffffffffffffffffffffffffffffffffffffffff1673ffffffffffffffffffffffffffffffffffffffff16815260200190815260200160002060000160049054906101000a900460ff1661264e576040517f08c379a0000000000000000000000000000000000000000000000000000000008152600401612645906132f2565b60405180910390fd5b600073ffffffffffffffffffffffffffffffffffffffff166003600084815260200190815260200160002060000160059054906101000a900473ffffffffffffffffffffffffffffffffffffffff1673ffffffffffffffffffffffffffffffffffffffff16146126f3576040517f08c379a00000000000000000000000000000000000000000000000000000000081526004016126ea906132d2565b60405180910390fd5b816003600084815260200190815260200160002060010181905550806003600084815260200190815260200160002060020181905550336003600084815260200190815260200160002060000160056101000a81548173ffffffffffffffffffffffffffffffffffffffff021916908373ffffffffffffffffffffffffffffffffffffffff16021790555060006003600084815260200190815260200160002060000160046101000a81548160ff02191690831515021790555060006003600084815260200190815260200160002060000160006101000a81548161ffff021916908361ffff16021790555060006003600084815260200190815260200160002060000160026101000a81548161ffff021916908361ffff1602179055505050565b60008060008060008086600073ffffffffffffffffffffffffffffffffffffffff166003600083815260200190815260200160002060000160059054906101000a900473ffffffffffffffffffffffffffffffffffffffff1673ffffffffffffffffffffffffffffffffffffffff1614156128c5576040517f08c379a00000000000000000000000000000000000000000000000000000000081526004016128bc90613312565b60405180910390fd5b600073ffffffffffffffffffffffffffffffffffffffff16600460003373ffffffffffffffffffffffffffffffffffffffff1673ffffffffffffffffffffffffffffffffffffffff16815260200190815260200160002060000160059054906101000a900473ffffffffffffffffffffffffffffffffffffffff1673ffffffffffffffffffffffffffffffffffffffff161415612997576040517f08c379a000000000000000000000000000000000000000000000000000000000815260040161298e90613252565b60405180910390fd5b600460003373ffffffffffffffffffffffffffffffffffffffff1673ffffffffffffffffffffffffffffffffffffffff16815260200190815260200160002060000160049054906101000a900460ff16612a26576040517f08c379a0000000000000000000000000000000000000000000000000000000008152600401612a1d906132f2565b60405180910390fd5b6003600089815260200190815260200160002060010154600360008a815260200190815260200160002060020154600360008b815260200190815260200160002060000160059054906101000a900473ffffffffffffffffffffffffffffffffffffffff16600360008c815260200190815260200160002060000160049054906101000a900460ff16600360008d815260200190815260200160002060000160009054906101000a900461ffff16600360008e815260200190815260200160002060000160029054906101000a900461ffff168161ffff1691508061ffff1690509650965096509650965096505091939550919395565b60016006600083815260200190815260200160002060008473ffffffffffffffffffffffffffffffffffffffff1673ffffffffffffffffffffffffffffffffffffffff16815260200190815260200160002060006101000a81548160ff0219169083151502179055505050565b60005b600280549050811015612c80576000600760008473ffffffffffffffffffffffffffffffffffffffff1673ffffffffffffffffffffffffffffffffffffffff168152602001908152602001600020600060028481548110612bf157612bf0613573565b5b9060005260206000200160009054906101000a900473ffffffffffffffffffffffffffffffffffffffff1673ffffffffffffffffffffffffffffffffffffffff1673ffffffffffffffffffffffffffffffffffffffff16815260200190815260200160002060006101000a81548160ff0219169083151502179055508080612c78906134cc565b915050612b8d565b5050565b60005b600280549050811015612d4e57600060066000848152602001908152602001600020600060028481548110612cbf57612cbe613573565b5b9060005260206000200160009054906101000a900473ffffffffffffffffffffffffffffffffffffffff1673ffffffffffffffffffffffffffffffffffffffff1673ffffffffffffffffffffffffffffffffffffffff16815260200190815260200160002060006101000a81548160ff0219169083151502179055508080612d46906134cc565b915050612c87565b5050565b6040518060c00160405280600061ffff168152602001600061ffff168152602001600015158152602001600073ffffffffffffffffffffffffffffffffffffffff16815260200160008019168152602001600080191681525090565b600081359050612dbd8161395b565b92915050565b600081359050612dd281613972565b92915050565b600081359050612de781613989565b92915050565b600060208284031215612e0357612e026135a2565b5b6000612e1184828501612dae565b91505092915050565b60008060408385031215612e3157612e306135a2565b5b6000612e3f85828601612dae565b9250506020612e5085828601612dc3565b9150509250929050565b600060208284031215612e7057612e6f6135a2565b5b6000612e7e84828501612dd8565b91505092915050565b60008060408385031215612e9e57612e9d6135a2565b5b6000612eac85828601612dd8565b9250506020612ebd85828601612dd8565b9150509250929050565b600080600060608486031215612ee057612edf6135a2565b5b6000612eee86828701612dd8565b9350506020612eff86828701612dd8565b9250506040612f1086828701612dae565b9150509250925092565b612f2381613442565b82525050565b612f3281613442565b82525050565b612f4181613454565b82525050565b612f5081613454565b82525050565b612f5f81613460565b82525050565b612f6e81613460565b82525050565b6000612f81602f836133c8565b9150612f8c826135a7565b604082019050919050565b6000612fa46023836133c8565b9150612faf826135f6565b604082019050919050565b6000612fc76020836133c8565b9150612fd282613645565b602082019050919050565b6000612fea6028836133c8565b9150612ff58261366e565b604082019050919050565b600061300d6043836133c8565b9150613018826136bd565b606082019050919050565b60006130306028836133c8565b915061303b82613732565b604082019050919050565b6000613053602d836133c8565b915061305e82613781565b604082019050919050565b60006130766029836133c8565b9150613081826137d0565b604082019050919050565b60006130996025836133c8565b91506130a48261381f565b604082019050919050565b60006130bc6037836133c8565b91506130c78261386e565b604082019050919050565b60006130df6027836133c8565b91506130ea826138bd565b604082019050919050565b6000613102602a836133c8565b915061310d8261390c565b604082019050919050565b60c08201600082015161312e6000850182613193565b5060208201516131416020850182613193565b5060408201516131546040850182612f38565b5060608201516131676060850182612f1a565b50608082015161317a6080850182612f56565b5060a082015161318d60a0850182612f56565b50505050565b61319c8161346a565b82525050565b6131ab81613498565b82525050565b600060c0820190506131c66000830189612f65565b6131d36020830188612f65565b6131e06040830187612f29565b6131ed6060830186612f47565b6131fa60808301856131a2565b61320760a08301846131a2565b979650505050505050565b6000602082019050818103600083015261322b81612f74565b9050919050565b6000602082019050818103600083015261324b81612f97565b9050919050565b6000602082019050818103600083015261326b81612fba565b9050919050565b6000602082019050818103600083015261328b81612fdd565b9050919050565b600060208201905081810360008301526132ab81613000565b9050919050565b600060208201905081810360008301526132cb81613023565b9050919050565b600060208201905081810360008301526132eb81613046565b9050919050565b6000602082019050818103600083015261330b81613069565b9050919050565b6000602082019050818103600083015261332b8161308c565b9050919050565b6000602082019050818103600083015261334b816130af565b9050919050565b6000602082019050818103600083015261336b816130d2565b9050919050565b6000602082019050818103600083015261338b816130f5565b9050919050565b600060c0820190506133a76000830184613118565b92915050565b60006020820190506133c260008301846131a2565b92915050565b600082825260208201905092915050565b60006133e48261346a565b91506133ef8361346a565b92508261ffff0382111561340657613405613515565b5b828201905092915050565b600061341c82613498565b915061342783613498565b92508261343757613436613544565b5b828204905092915050565b600061344d82613478565b9050919050565b60008115159050919050565b6000819050919050565b600061ffff82169050919050565b600073ffffffffffffffffffffffffffffffffffffffff82169050919050565b6000819050919050565b60006134ad82613498565b915060008214156134c1576134c0613515565b5b600182039050919050565b60006134d782613498565b91507fffffffffffffffffffffffffffffffffffffffffffffffffffffffffffffffff82141561350a57613509613515565b5b600182019050919050565b7f4e487b7100000000000000000000000000000000000000000000000000000000600052601160045260246000fd5b7f4e487b7100000000000000000000000000000000000000000000000000000000600052601260045260246000fd5b7f4e487b7100000000000000000000000000000000000000000000000000000000600052603260045260246000fd5b600080fd5b7f41204b5943207265717565737420616c72656164792065786973747320666f7260008201527f207468697320437573746f6d65722e0000000000000000000000000000000000602082015250565b7f4f6e6c792041646d696e2063616e20706572666f726d2074686973206163746960008201527f6f6e2e0000000000000000000000000000000000000000000000000000000000602082015250565b7f4e6f2042616e6b20666f756e642077697468207468697320616464726573732e600082015250565b7f412042616e6b20776974682074686973206164647265737320616c726561647960008201527f206578697374732e000000000000000000000000000000000000000000000000602082015250565b7f5265706f7274696e672042616e6b20616c72656164792072656769737465726560008201527f6420636f6d706c61696e7420616761696e737420726563697069656e7420426160208201527f6e6b2e0000000000000000000000000000000000000000000000000000000000604082015250565b7f4e6f204b594320726571756573742065786973747320666f722074686973206360008201527f7573746f6d65722e000000000000000000000000000000000000000000000000602082015250565b7f4120437573746f6d657220616c7265616479206578697374732077697468207460008201527f68697320757365724e616d652e00000000000000000000000000000000000000602082015250565b7f546869732042616e6b206973206e6f206c6f6e67657220616c6c6f776564207460008201527f6f20646f204b59432e0000000000000000000000000000000000000000000000602082015250565b7f4e6f20637573746f6d657220666f756e6420776974682074686973205573657260008201527f6e616d652e000000000000000000000000000000000000000000000000000000602082015250565b7f43616e277420766f74652061732074686572652773206e6f204b59432072657160008201527f7565737420666f72207468697320637573746f6d65722e000000000000000000602082015250565b7f546869732042616e6b206973206e6f206c6f6e67657220616c6c6f776564207460008201527f6f20766f74652e00000000000000000000000000000000000000000000000000602082015250565b7f546869732042616e6b20616c726561647920766f74656420666f72207468697360008201527f20637573746f6d65722e00000000000000000000000000000000000000000000602082015250565b61396481613442565b811461396f57600080fd5b50565b61397b81613454565b811461398657600080fd5b50565b61399281613460565b811461399d57600080fd5b5056fea26469706673582212200b9d91f40c93f4b4a58e5cbc7039a3c6b2585dc167983c05d71ec18a551412d364736f6c63430008070033",
  "immutableReferences": {},
  "source": "// SPDX-License-Identifier: GPL-3.0\npragma solidity >=0.5.22 <0.9.0;\n\n/// @title An implementation of a Decentralized KYC system.\n/// @author Sri Harsha K.\n/// @notice All functionality is accompanied by relevant comments that (mostly) adhere to Ethereum NatSpec.\n\ncontract KYC{\n\n    address admin;\n    uint256 totalBanks; /// @dev For lone variables, uint256 is cheaper than uint8 due to EVM downscaling. Hence using it here.\n\n    struct Customer {\n        uint16 upvotes; /// @dev These get packed, so can use a (reasonably) lower value than uint256 to save some gas.\n        uint16 downvotes;\n        bool kycStatus;\n        address initiatingBank;\n        bytes32 userName;   \n        bytes32 kycDataHash;  /// @dev Assuming keccak256 hash as input.\n    }\n    \n    struct Bank {\n        uint16 complaintsReported;\n        uint16 kycReqCount;\n        bool isAllowedToVote;\n        address ethAddress;\n        bytes32 name;\n        bytes32 regNumber;\n    }\n\n    struct KYCRequest {\n        bytes32 kycCustUserName;     \n        bytes32 kycCustData;\n        address kycBankAddr;\n    }\n\n    address[] allBankAddresses; /// @dev An array is unavoidable to achieve duplicate voting prevention. Because we need to reset votedUponCustomersList.\n\n    /// Setting contract deployer as admin.\n    constructor() public {\n        admin = msg.sender;\n    }\n\n    mapping(bytes32 => Customer) customersList; /// customerUserName => Customer\n    mapping(address => Bank) banksList; /// bankAddress => Bank \n    mapping(bytes32 => KYCRequest) kycRequestsList; /// customerUserName => KycRequest \n\n    /// Below mappings are to prevent duplicate voting of Customers & duplicate reporting of Banks.\n    mapping(bytes32 => mapping(address => bool)) votedUponCustomersList; /// customerUserName => (bankAddress => isVotedUpon)\n    mapping(address => mapping(address => bool)) reportedUponBanksList;/// reportReceivingBankAddress => (reportingBankAddress => isReportedUpon)\n\n   /// Modifiers\n    modifier adminOnly() {\n        require(msg.sender == admin, \"Only Admin can perform this action.\");\n        _;\n    }\n\n    modifier customerExists(bytes32 _userName) {\n        require(customersList[_userName].initiatingBank != address(0), \"No customer found with this Username.\");\n        _;\n    }\n\n  \n    /// Bank Interface\n    /******************************************************************************************************************\n        @notice addCustomer : Adds a Customer to the customersList. \n        @param {bytes32} _userName : Username of the Customer.\n        @param {bytes32} _customerData : Hashed KYC data of the Customer.\n     ******************************************************************************************************************/\n     function addCustomer(bytes32 _userName, bytes32 _customerData) public {\n        require(banksList[msg.sender].ethAddress != address(0), \"No Bank found with this address.\");\n        require(banksList[msg.sender].isAllowedToVote, \"This Bank is no longer allowed to do KYC.\");\n        require(customersList[_userName].initiatingBank == address(0), \"A Customer already exists with this userName.\");\n        customersList[_userName].userName = _userName;\n        customersList[_userName].kycDataHash = _customerData;\n        customersList[_userName].initiatingBank = msg.sender;\n        customersList[_userName].kycStatus = false;\n        customersList[_userName].upvotes = 0;\n        customersList[_userName].downvotes = 0;\n    }\n\n     /******************************************************************************************************************\n        @notice viewCustomer : Fetches details of a Customer. \n        @param {bytes32} _userName : Username of the Customer.\n     ******************************************************************************************************************/\n    function viewCustomer(bytes32 _userName) public view customerExists(_userName) returns (bytes32, bytes32, address, bool, uint256, uint256) {\n        require(banksList[msg.sender].ethAddress != address(0), \"No Bank found with this address.\");\n        require(banksList[msg.sender].isAllowedToVote, \"This Bank is no longer allowed to do KYC.\");\n        return (customersList[_userName].userName, customersList[_userName].kycDataHash, customersList[_userName].initiatingBank, customersList[_userName].kycStatus, customersList[_userName].upvotes, customersList[_userName].downvotes);\n    }\n    \n    /******************************************************************************************************************\n        @notice modifyCustomer : Replaces customer KYC data. Resets upvotes and downvotes. Deletes current KYC request.\n        @param {bytes32} _userName : Username of the Customer.\n        @param {bytes32} _newcustomerData : Hashed KYC data of the Customer.\n     ******************************************************************************************************************/\n    function modifyCustomer(bytes32 _userName, bytes32 _newcustomerData) public customerExists(_userName) {\n        require(banksList[msg.sender].ethAddress != address(0), \"No Bank found with this address.\");\n        require(banksList[msg.sender].isAllowedToVote, \"This Bank is no longer allowed to do KYC.\");\n        customersList[_userName].kycDataHash = _newcustomerData;\n        customersList[_userName].upvotes = 0;\n        customersList[_userName].downvotes = 0;\n        if(kycRequestsList[_userName].kycBankAddr != address(0)){\n            delete kycRequestsList[_userName];\n        }\n        //delete votedUponCustomersList[_userName];\n        resetVotedUponCustomersList(_userName);\n    }    \n\n    /******************************************************************************************************************\n        @notice upvoteCustomerKyc : Upvotes customer's KYC data as valid. \n        @param {bytes32} _userName : Username of the Customer.\n        @dev In this function, we call addToVotedUponCustomersList function which adds the current Customer entry \n        into votedUponCustomersList. This is to prevent double voting of the Cusomter by same Bank which would defeat\n        the purpose of KYC in the first place.\n     ******************************************************************************************************************/\n    function upvoteCustomerKyc(bytes32 _userName) public customerExists(_userName) {\n        require(banksList[msg.sender].ethAddress != address(0), \"No Bank found with this address.\");\n        require(banksList[msg.sender].isAllowedToVote, \"This Bank is no longer allowed to vote.\");\n        require(!votedUponCustomersList[_userName][msg.sender], \"This Bank already voted for this customer.\");\n        require(kycRequestsList[_userName].kycBankAddr != address(0), \"Can't vote as there's no KYC request for this customer.\");\n        customersList[_userName].upvotes += 1;\n        customersList[_userName].kycStatus = (customersList[_userName].downvotes < totalBanks/3 && customersList[_userName].upvotes > customersList[_userName].downvotes);\n        addToVotedUponCustomersList(msg.sender, _userName);\n    }\n\n    /******************************************************************************************************************\n        @notice downvoteCustomerKyc : Downvotes customer's KYC data as invalid. \n        @param {bytes32} _userName  : Username of the Customer.\n        @dev If a customer gets downvoted by one-third (our threshold) of the banks, then the kycStatus of the customer is set to \n        false even if the number of upvotes is more than that of downvotes. \n     ******************************************************************************************************************/\n    function downvoteCustomerKyc(bytes32 _userName) public customerExists(_userName) {\n        require(banksList[msg.sender].ethAddress != address(0), \"No Bank found with this address.\");\n        require(banksList[msg.sender].isAllowedToVote, \"This Bank is no longer allowed to vote.\");\n        require(!votedUponCustomersList[_userName][msg.sender], \"This Bank already voted for this customer.\");\n        require(kycRequestsList[_userName].kycBankAddr != address(0), \"Can't vote as there's no KYC request for this customer.\");\n        customersList[_userName].downvotes += 1;\n        customersList[_userName].kycStatus = (customersList[_userName].downvotes < totalBanks/3 && customersList[_userName].upvotes > customersList[_userName].downvotes);\n        banksList[customersList[_userName].initiatingBank].isAllowedToVote = false;\n        addToVotedUponCustomersList(msg.sender, _userName);\n    }\n    \n    /******************************************************************************************************************\n        @notice addKycRequest : Adds a customer's KYC data to the request list to be picked and verified. \n        @param {bytes32} _userName : Username of the Customer.\n        @param {bytes32} _customerData : Hashed KYC data of the Customer.\n     ******************************************************************************************************************/\n    function addKycRequest(bytes32 _userName, bytes32 _customerData) public customerExists(_userName) {\n        require(banksList[msg.sender].ethAddress != address(0), \"No Bank found with this address.\");\n        require(banksList[msg.sender].isAllowedToVote, \"This Bank is no longer allowed to do KYC.\");\n        require(kycRequestsList[_userName].kycBankAddr == address(0), \"A KYC request already exists for this Customer.\");\n        kycRequestsList[_userName].kycCustUserName = _userName;\n        kycRequestsList[_userName].kycCustData = _customerData;\n        kycRequestsList[_userName].kycBankAddr = msg.sender;\n        banksList[msg.sender].kycReqCount += 1;\n    }\n    \n    /******************************************************************************************************************\n        @notice removeKycRequest    : Removes a customer's KYC data from the request list. \n        @param {bytes32} _userName  : Username of the Customer.\n     ******************************************************************************************************************/\n    function removeKycRequest(bytes32 _userName) public {\n        require(banksList[msg.sender].ethAddress != address(0), \"No Bank found with this address.\");\n        require(banksList[msg.sender].isAllowedToVote, \"This Bank is no longer allowed to do KYC.\");\n        require(kycRequestsList[_userName].kycBankAddr != address(0), \"No KYC request exists for this customer.\");\n        delete kycRequestsList[_userName];\n    }\n\n    /******************************************************************************************************************\n        @notice viewBankDetails     : Fetches the Bank variable from banksList. \n        @param {address} _bankAddr  : Address of the Bank to be fetched.\n     ******************************************************************************************************************/\n    function viewBankDetails(address _bankAddr) public view returns(Bank memory){\n        require(banksList[_bankAddr].ethAddress != address(0), \"No Bank found with this address.\");\n        require(banksList[msg.sender].isAllowedToVote, \"This Bank is no longer allowed to do KYC.\");\n        return banksList[_bankAddr];\n    }\n    \n    /******************************************************************************************************************\n        @notice getBankComplaintsCount : Fetches the number of complaints reported against a Bank. \n        @param {address} _bankAddr : Address of the Bank whose complaints count is to be fetched.\n     ******************************************************************************************************************/\n    function getBankComplaintsCount(address _bankAddr) public view returns(uint){\n        require(banksList[_bankAddr].ethAddress != address(0), \"No Bank found with this address.\");\n        return banksList[_bankAddr].complaintsReported;\n    }\n\n    /******************************************************************************************************************\n        @notice reportBank : Reports a Bank as faulty. \n        @param {address} _bankAddr : Address of the Bank being reported against.\n        @dev We also check number of reports against the Bank. If they're more than 1/3 (our threshold) of total Banks.\n        If yes, we set the Bank's isAllowedToVote to false. We also add the Bank to reportedUponBanksList which keeps \n        a map of all reported Banks and their reporters, to prevent duplicate reporting.\n     ******************************************************************************************************************/\n    function reportBank(address _bankAddr) public {\n        require(banksList[_bankAddr].ethAddress != address(0), \"No Bank found with this address.\");\n        require(banksList[msg.sender].isAllowedToVote, \"This Bank is no longer allowed to do KYC.\");\n        require(!reportedUponBanksList[_bankAddr][msg.sender], \"Reporting Bank already registered complaint against recipient Bank.\");\n        banksList[_bankAddr].complaintsReported += 1;\n        banksList[_bankAddr].isAllowedToVote = (banksList[_bankAddr].complaintsReported < totalBanks/3);\n        reportedUponBanksList[_bankAddr][msg.sender] = true; \n    } \n\n    /******************************************************************************************************************\n        @notice addToVotedUponCustomersList : Internal function to add a Customer to votedUponCustomersList. This\n        list keeps track of customers & banks that voted them respectively and used to prevent duplicate voting.\n        @param {address} _bankAddr : Address of the Bank voting.\n        @param {bytes32} _userName : Username of the Customer.\n     ******************************************************************************************************************/\n    function addToVotedUponCustomersList(address _bankAddr, bytes32 _userName) internal {\n        votedUponCustomersList[_userName][_bankAddr] = true; \n    }\n\n    /******************************************************************************************************************\n        @notice resetVotedUponCustomersList : Resets votedUponCustomersList. To be called when modifyCustomer executes.\n        @param {bytes32} _userName : Username of the Customer.\n     ******************************************************************************************************************/\n    function resetVotedUponCustomersList(bytes32 _userName) internal {\n        for(uint i=0; i<allBankAddresses.length; i++){\n            votedUponCustomersList[_userName][allBankAddresses[i]] = false;\n        }\n    }\n\n    /******************************************************************************************************************\n        @notice resetReportedUponBanksList : Resets votedUponCustomersList. To be called when admin calls \n        modifyBankVotingRights with True.\n        @param {address} _reportedUponBankAddr : Address of Bank reported on.\n     ******************************************************************************************************************/\n    function resetReportedUponBanksList(address _reportedUponBankAddr) internal {\n        for(uint i=0; i<allBankAddresses.length; i++){\n            reportedUponBanksList[_reportedUponBankAddr][allBankAddresses[i]] = false;\n        }\n    }\n\n    /// Admin Interface \n    /******************************************************************************************************************\n        @notice addBank : Adds a Bank to the KYC contract. Can only be called by Admin.\n        @param {bytes32} _bankName  : Name of the Bank.\n        @param {bytes32} _bankRegNo : Registration number of the Bank.\n        @param {address} _bankAddr  : Address of the Bank.\n        @dev This function increments the totalBanks counter by 1. We use totalBanks to keep track of number of \n        Banks in the system and to calculate thresholds for downvotes and reports.\n     ******************************************************************************************************************/\n    function addBank(bytes32 _bankName, bytes32 _bankRegNo, address _bankAddr) public adminOnly {\n        require(banksList[_bankAddr].ethAddress == address(0), \"A Bank with this address already exists.\");\n        banksList[_bankAddr].name =  _bankName;\n        banksList[_bankAddr].regNumber =  _bankRegNo;\n        banksList[_bankAddr].ethAddress =  _bankAddr;\n        banksList[_bankAddr].isAllowedToVote =  true;\n        banksList[_bankAddr].complaintsReported =  0;\n        banksList[_bankAddr].kycReqCount =  0;\n        totalBanks++;\n        allBankAddresses.push(_bankAddr);\n    }\n\n    /******************************************************************************************************************\n        @notice modifyBankVotingRights  : Sets a Bank's isAllowedToVote value. Can only be called by Admin.\n        @param {address} _bankAddr      : Address of the Bank.\n        @param {bool} _isAllowedToVote  : True or False value to be set.\n        @dev We also call resetReportedUponBanksList to remove the Bank's reports from the reported Banks list.\n     ******************************************************************************************************************/\n    function modifyBankVotingRights(address _bankAddr, bool _isAllowedToVote) public adminOnly {\n        require(banksList[_bankAddr].ethAddress != address(0), \"No Bank found with this address.\");\n        banksList[_bankAddr].isAllowedToVote =  _isAllowedToVote;\n        if(_isAllowedToVote){\n            resetReportedUponBanksList(_bankAddr);\n        }\n    }\n\n    /******************************************************************************************************************\n        @notice removeBank  : Removes a Bank from the KYC contract. Can only be called by Admin.\n        @param {address} _bankAddr      : Address of the Bank.\n        @param {bool} _isAllowedToVote  : True or False value to be set.\n        @dev This function decrements the totalBanks counter by 1.\n     ******************************************************************************************************************/\n    function removeBank(address _bankAddr) public adminOnly {\n        require(banksList[_bankAddr].ethAddress != address(0), \"No Bank found with this address.\");\n        delete banksList[_bankAddr];\n        totalBanks--;\n    }\n}    ",
  "sourcePath": "/Users/hk/GitHub_Repos/IIITB/KYC_Upgrad_Ethereum_CW/SmartContracts/contracts/KYC.sol",
  "compiler": {
    "name": "solc",
    "version": "0.8.7+commit.e28d00a7.Emscripten.clang"
  },
  "schemaVersion": "3.4.10",
  "updatedAt": "2022-10-24T15:08:08.594Z",
  "networkType": "ethereum",
  "devdoc": {
    "author": "Sri Harsha K.",
    "kind": "dev",
    "methods": {},
    "title": "An implementation of a Decentralized KYC system.",
    "version": 1
  },
  "userdoc": {
    "kind": "user",
    "methods": {
      "addBank(bytes32,bytes32,address)": {
        "notice": "Admin Interface "
      },
      "addCustomer(bytes32,bytes32)": {
        "notice": "Bank Interface"
      },
      "constructor": {
        "notice": "Setting contract deployer as admin."
      }
    },
    "notice": "All functionality is accompanied by relevant comments that (mostly) adhere to Ethereum NatSpec.",
    "version": 1
  }
}